
Discarded input sections

 .text          0x00000000        0x0 build/snip.ota_fr-ISM4343_WBM_L151_BBS2-ThreadX-NetX/apps_header.o
 .data          0x00000000        0x0 build/snip.ota_fr-ISM4343_WBM_L151_BBS2-ThreadX-NetX/apps_header.o
 .bss           0x00000000        0x0 build/snip.ota_fr-ISM4343_WBM_L151_BBS2-ThreadX-NetX/apps_header.o

Memory Configuration

Name             Origin             Length             Attributes
DCT1_FLASH       0x08004000         0x00004000         xr
DCT2_FLASH       0x08008000         0x00004000         xr
APP_FLASH        0x0800c000         0x000f4000         xr
SRAM             0x20000000         0x00040000         xrw
*default*        0x00000000         0xffffffff

Linker script and memory map

                0x00000320                __STACKSIZE__ = 0x320

.glue_7         0x08004000        0x0
 .glue_7        0x08004000        0x0 linker stubs

.glue_7t        0x08004000        0x0
 .glue_7t       0x08004000        0x0 linker stubs

.vfp11_veneer   0x08004000        0x0
 .vfp11_veneer  0x08004000        0x0 linker stubs

.v4_bx          0x08004000        0x0
 .v4_bx         0x08004000        0x0 linker stubs

.iplt           0x08004000        0x0
 .iplt          0x08004000        0x0 build/snip.ota_fr-ISM4343_WBM_L151_BBS2-ThreadX-NetX/apps_header.o

.igot.plt       0x20000000        0x0
 .igot.plt      0x20000000        0x0 build/snip.ota_fr-ISM4343_WBM_L151_BBS2-ThreadX-NetX/apps_header.o

.rodata         0x08004000     0x1000
                0x08004000                dct_location = .
 *(.rodata.initial_dct)
 *(.rodata.wiced_apps_lut)
 .rodata.wiced_apps_lut
                0x08004000     0x1000 build/snip.ota_fr-ISM4343_WBM_L151_BBS2-ThreadX-NetX/apps_header.o
                0x08004000                wiced_apps_lut
 *(.rodata.wiced_apps_lut_fill)
 *(.rodata._app_dct)
                0x08005000                dct_end = .
                [!provide]                PROVIDE (dct_full_size_loc, LENGTH (DCT1_FLASH))
                [!provide]                PROVIDE (dct_used_size_loc, (dct_end - ORIGIN (DCT1_FLASH)))
LOAD build/snip.ota_fr-ISM4343_WBM_L151_BBS2-ThreadX-NetX/apps_header.o
LOAD c:/users/mthom/workspace/wiced-studio-6.4/43xxx_wi-fi/tools/arm_gnu/win32/bin/../lib/gcc/arm-none-eabi/7.2.1/../../../../arm-none-eabi/lib/thumb/v7e-m\libstdc++.a
LOAD c:/users/mthom/workspace/wiced-studio-6.4/43xxx_wi-fi/tools/arm_gnu/win32/bin/../lib/gcc/arm-none-eabi/7.2.1/../../../../arm-none-eabi/lib/thumb/v7e-m\libm.a
START GROUP
LOAD c:/users/mthom/workspace/wiced-studio-6.4/43xxx_wi-fi/tools/arm_gnu/win32/bin/../lib/gcc/arm-none-eabi/7.2.1/thumb/v7e-m\libgcc.a
LOAD c:/users/mthom/workspace/wiced-studio-6.4/43xxx_wi-fi/tools/arm_gnu/win32/bin/../lib/gcc/arm-none-eabi/7.2.1/../../../../arm-none-eabi/lib/thumb/v7e-m\libc.a
END GROUP
OUTPUT(build/snip.ota_fr-ISM4343_WBM_L151_BBS2-ThreadX-NetX/APPS.elf elf32-littlearm)

.rel.dyn        0x08005000        0x0
 .rel.iplt      0x08005000        0x0 build/snip.ota_fr-ISM4343_WBM_L151_BBS2-ThreadX-NetX/apps_header.o

.debug_info     0x00000000      0x1bc
 .debug_info    0x00000000      0x1bc build/snip.ota_fr-ISM4343_WBM_L151_BBS2-ThreadX-NetX/apps_header.o

.debug_abbrev   0x00000000       0xc3
 .debug_abbrev  0x00000000       0xc3 build/snip.ota_fr-ISM4343_WBM_L151_BBS2-ThreadX-NetX/apps_header.o

.debug_aranges  0x00000000       0x18
 .debug_aranges
                0x00000000       0x18 build/snip.ota_fr-ISM4343_WBM_L151_BBS2-ThreadX-NetX/apps_header.o

.debug_line     0x00000000      0x173
 .debug_line    0x00000000      0x173 build/snip.ota_fr-ISM4343_WBM_L151_BBS2-ThreadX-NetX/apps_header.o

.debug_str      0x00000000      0x26c
 .debug_str     0x00000000      0x26c build/snip.ota_fr-ISM4343_WBM_L151_BBS2-ThreadX-NetX/apps_header.o
                                0x2b6 (size before relaxing)

.comment        0x00000000       0x7f
 .comment       0x00000000       0x7f build/snip.ota_fr-ISM4343_WBM_L151_BBS2-ThreadX-NetX/apps_header.o
                                 0x80 (size before relaxing)

.ARM.attributes
                0x00000000       0x33
 .ARM.attributes
                0x00000000       0x33 build/snip.ota_fr-ISM4343_WBM_L151_BBS2-ThreadX-NetX/apps_header.o

Cross Reference Table

Symbol                                            File
wiced_apps_lut                                    build/snip.ota_fr-ISM4343_WBM_L151_BBS2-ThreadX-NetX/apps_header.o
